:020000040800F2
:100000000000022039000008350000083500000813
:100010003500000835000008350000080000000029
:100020000000000000000000000000003500000893
:10003000FEE700BFFEE700BF30B41049104C114A84
:10004000114B124812681B680568A1420BD2C843C5
:10005000204420F0030004301044146841F8044B9D
:1000600004328242F9D1AB4204D200221A60043336
:100070009D42FBD830BCFFF7DBBF00BF0000002073
:100080000000002090000008000000200000002078
:04009000F8B500BF00
:04009400F8B500BFFC
:0400000508000039B6
:00000001FF
