:020000040800F2
:10000000000002203900000831000008310000081B
:100010003100000831000008310000080000000035
:100020000000000000000000000000003100000897
:10003000FEE700BF00000000F0B5474B474D484ABF
:1000400048481B68484900680C6895429C4622D283
:10005000013A521B011DA94218BF2F2A69D945EA4E
:1000600000014E0765D19208511C4E0800EBC606F0
:1000700002462F1A92ED007B07EB020E0832B242C5
:100080008EED007BF6D121F00102C90703D550F8AF
:10009000221045F82210A34247D2611E5A1CC91AE9
:1000A00094424FEA910202F10102C3F3800038BF8B
:1000B00001221AD317298CBF00210121A9B99C461E
:1000C00008B14CF8041B121A9FED217B03EB80034F
:1000D000510803EBC101A3EC027B9942FBD122F052
:1000E00001039A420CEB830C1FD06246002342F8B6
:1000F000043B944219D90CF108029442CCF8043024
:1001000013D90CF10C029442CCF808300DD90CF143
:1001100010029442CCF80C3007D90CF1140294422E
:10012000CCF8103088BFCCF81430BDE8F04000F0B7
:100130001DB822F00302043208492A44401B0D581E
:1001400041F8045B9142FAD1A5E700BFAFF300800C
:10015000000000000000000000000020000000205F
:10016000000000207001000800000020FEE700BF32
:04017000F8B500BF1F
:04017400F8B500BF1B
:0400000508000039B6
:00000001FF
