:020000040800F2
:100000000000022039000008350000083500000813
:100010003500000835000008350000080000000029
:100020000000000000000000000000003500000893
:10003000FEE700BFFEE700BF134B14498B4210B42C
:100040000ED20139C91A21F003010431104A1944B2
:1000500018460433146804608B4202F10402F7D19D
:100060000C4B0D4A93420BD2013AD21A22F00302F2
:1000700004321A4400201946043393420860FAD12E
:100080005DF8044BFFF7D4BF000000200000002003
:10009000B40000080000002000000020F8B500BFF8
:1000A000F8BC08BC9E467047F8B500BFF8BC08BC59
:0400B0009E467047B1
:0400000508000039B6
:00000001FF
